{
  "_format": "hh-sol-artifact-1",
  "contractName": "Inscription",
  "sourceName": "src/Inscription.sol",
  "abi": [
    {
      "inputs": [
        {
          "internalType": "string",
          "name": "firstMessage",
          "type": "string"
        }
      ],
      "stateMutability": "nonpayable",
      "type": "constructor"
    },
    {
      "anonymous": false,
      "inputs": [
        {
          "indexed": true,
          "internalType": "uint256",
          "name": "index",
          "type": "uint256"
        },
        {
          "indexed": false,
          "internalType": "string",
          "name": "message",
          "type": "string"
        }
      ],
      "name": "RecordedMessage",
      "type": "event"
    },
    {
      "inputs": [],
      "name": "getAllMessage",
      "outputs": [
        {
          "internalType": "string[]",
          "name": "",
          "type": "string[]"
        }
      ],
      "stateMutability": "view",
      "type": "function"
    },
    {
      "inputs": [
        {
          "internalType": "uint256",
          "name": "index",
          "type": "uint256"
        }
      ],
      "name": "getMessage",
      "outputs": [
        {
          "internalType": "string",
          "name": "",
          "type": "string"
        }
      ],
      "stateMutability": "view",
      "type": "function"
    },
    {
      "inputs": [],
      "name": "owner",
      "outputs": [
        {
          "internalType": "address",
          "name": "",
          "type": "address"
        }
      ],
      "stateMutability": "view",
      "type": "function"
    },
    {
      "inputs": [
        {
          "internalType": "string",
          "name": "message",
          "type": "string"
        }
      ],
      "name": "recordMessage",
      "outputs": [],
      "stateMutability": "nonpayable",
      "type": "function"
    }
  ],
  "bytecode": "0x608060405260006001553480156200001657600080fd5b5060405162000e6538038062000e6583398101604081905262000039916200025d565b600080546001600160a01b0319163317905562000056816200005d565b506200056f565b6000546001600160a01b03163314620000935760405162461bcd60e51b81526004016200008a906200029d565b60405180910390fd5b806000815111620000b85760405162461bcd60e51b81526004016200008a90620002ee565b6001546000908152600260205260409020620000d5838262000422565b506001547f990a0c50779c34766b49d4e51f3bb2293cc7061a5c5adaa9a4baebb944f88d68836040516200010a919062000523565b60405180910390a260018054906000620001248362000553565b91905055505050565b634e487b7160e01b600052604160045260246000fd5b601f19601f83011681016001600160401b03811182821017156200016b576200016b6200012d565b6040525050565b60006200017e60405190565b90506200018c828262000143565b919050565b60006001600160401b03821115620001ad57620001ad6200012d565b601f19601f83011660200192915050565b60005b83811015620001db578181015183820152602001620001c1565b50506000910152565b6000620001fb620001f58462000191565b62000172565b905082815260208101848484011115620002185762000218600080fd5b62000225848285620001be565b509392505050565b600082601f830112620002435762000243600080fd5b815162000255848260208601620001e4565b949350505050565b600060208284031215620002745762000274600080fd5b81516001600160401b038111156200028f576200028f600080fd5b62000255848285016200022d565b60208082528101620002e881602681527f4f6e6c7920746865206f776e65722063616e2063616c6c20746869732066756e60208201526531ba34b7b71760d11b604082015260600190565b92915050565b60208082528101620002e881601881527f4d6573736167652063616e6e6f7420626520656d7074792e0000000000000000602082015260400190565b634e487b7160e01b600052602260045260246000fd5b6002810460018216806200035557607f821691505b6020821081036200036a576200036a6200032a565b50919050565b6000620002e86200037e8381565b90565b6200038c8362000370565b815460001960089490940293841b1916921b91909117905550565b6000620003b681848462000381565b505050565b81811015620003da57620003d1600082620003a7565b600101620003bb565b5050565b601f821115620003b6576000818152602090206020601f85010481016020851015620004075750805b6200041b6020601f860104830182620003bb565b5050505050565b81516001600160401b038111156200043e576200043e6200012d565b6200044a825462000340565b62000457828285620003de565b506020601f8211600181146200048f5760008315620004765750848201515b600019600885021c19811660028502178555506200041b565b600084815260208120601f198516915b82811015620004c157878501518255602094850194600190920191016200049f565b5084821015620004df5783870151600019601f87166008021c191681555b50505050600202600101905550565b6000620004f9825190565b80845260208401935062000512818560208601620001be565b601f01601f19169290920192915050565b60208082528101620005368184620004ee565b9392505050565b634e487b7160e01b600052601160045260246000fd5b6000600182016200056857620005686200053d565b5060010190565b6108e6806200057f6000396000f3fe608060405234801561001057600080fd5b506004361061004c5760003560e01c8063808e51161461005157806386f79edb146100665780638da5cb5b1461008f5780638f8586d2146100af575b600080fd5b61006461005f36600461047c565b6100c4565b005b6100796100743660046104c0565b610188565b6040516100869190610537565b60405180910390f35b6000546100a2906001600160a01b031681565b604051610086919061056f565b6100b761024a565b60405161008691906105f3565b6000546001600160a01b031633146100f75760405162461bcd60e51b81526004016100ee90610604565b60405180910390fd5b8060008151116101195760405162461bcd60e51b81526004016100ee90610680565b60015460009081526002602052604090206101348382610770565b506001547f990a0c50779c34766b49d4e51f3bb2293cc7061a5c5adaa9a4baebb944f88d68836040516101679190610537565b60405180910390a26001805490600061017f83610846565b91905055505050565b60606001548211156101ac5760405162461bcd60e51b81526004016100ee9061088a565b600082815260026020526040902080546101c5906106a6565b80601f01602080910402602001604051908101604052809291908181526020018280546101f1906106a6565b801561023e5780601f106102135761010080835404028352916020019161023e565b820191906000526020600020905b81548152906001019060200180831161022157829003601f168201915b50505050509050919050565b6060600060015467ffffffffffffffff81111561026957610269610379565b60405190808252806020026020018201604052801561029c57816020015b60608152602001906001900390816102875790505b50905060005b60015481101561037357600081815260026020526040902080546102c5906106a6565b80601f01602080910402602001604051908101604052809291908181526020018280546102f1906106a6565b801561033e5780601f106103135761010080835404028352916020019161033e565b820191906000526020600020905b81548152906001019060200180831161032157829003601f168201915b50505050508282815181106103555761035561089a565b6020026020010181905250808061036b90610846565b9150506102a2565b50919050565b634e487b7160e01b600052604160045260246000fd5b601f19601f830116810181811067ffffffffffffffff821117156103b5576103b5610379565b6040525050565b60006103c760405190565b90506103d3828261038f565b919050565b600067ffffffffffffffff8211156103f2576103f2610379565b601f19601f83011660200192915050565b82818337506000910152565b600061042261041d846103d8565b6103bc565b90508281526020810184848401111561043d5761043d600080fd5b610448848285610403565b509392505050565b600082601f83011261046457610464600080fd5b813561047484826020860161040f565b949350505050565b60006020828403121561049157610491600080fd5b813567ffffffffffffffff8111156104ab576104ab600080fd5b61047484828501610450565b80355b92915050565b6000602082840312156104d5576104d5600080fd5b600061047484846104b7565b60005b838110156104fc5781810151838201526020016104e4565b50506000910152565b600061050f825190565b8084526020840193506105268185602086016104e1565b601f01601f19169290920192915050565b602080825281016105488184610505565b9392505050565b60006001600160a01b0382166104ba565b6105698161054f565b82525050565b602081016104ba8284610560565b60006105488383610505565b60200190565b6000610599825190565b808452602084019350836020820285016105b38560200190565b60005b848110156105e757838303885281516105cf848261057d565b935050602082016020989098019791506001016105b6565b50909695505050505050565b60208082528101610548818461058f565b602080825281016104ba81602681527f4f6e6c7920746865206f776e65722063616e2063616c6c20746869732066756e60208201526531ba34b7b71760d11b604082015260600190565b60188152602081017f4d6573736167652063616e6e6f7420626520656d7074792e000000000000000081529050610589565b602080825281016104ba8161064e565b634e487b7160e01b600052602260045260246000fd5b6002810460018216806106ba57607f821691505b60208210810361037357610373610690565b60006104ba6106d88381565b90565b6106e4836106cc565b815460001960089490940293841b1916921b91909117905550565b600061070c8184846106db565b505050565b8181101561072c576107246000826106ff565b600101610711565b5050565b601f82111561070c576000818152602090206020601f850104810160208510156107575750805b6107696020601f860104830182610711565b5050505050565b815167ffffffffffffffff81111561078a5761078a610379565b61079482546106a6565b61079f828285610730565b506020601f8211600181146107d457600083156107bc5750848201515b600019600885021c1981166002850217855550610769565b600084815260208120601f198516915b8281101561080457878501518255602094850194600190920191016107e4565b50848210156108215783870151600019601f87166008021c191681555b50505050600202600101905550565b634e487b7160e01b600052601160045260246000fd5b60006001820161085857610858610830565b5060010190565b60168152602081017524b73b30b634b21036b2b9b9b0b3b29034b73232bc1760511b81529050610589565b602080825281016104ba8161085f565b634e487b7160e01b600052603260045260246000fdfea26469706673582212207e2859267723d2ccfd32d0d843f94d6bfd53023f80bc0eac28ff121ddd1ccd8f64736f6c63430008130033",
  "linkReferences": {},
  "deployedLinkReferences": {}
}