{
  "_format": "hh-sol-artifact-1",
  "contractName": "Inscription",
  "sourceName": "src/Inscription.sol",
  "abi": [
    {
      "inputs": [
        {
          "internalType": "string",
          "name": "firstMessage",
          "type": "string"
        }
      ],
      "stateMutability": "nonpayable",
      "type": "constructor"
    },
    {
      "anonymous": false,
      "inputs": [
        {
          "indexed": true,
          "internalType": "uint256",
          "name": "index",
          "type": "uint256"
        },
        {
          "indexed": false,
          "internalType": "string",
          "name": "message",
          "type": "string"
        }
      ],
      "name": "RecordedMessage",
      "type": "event"
    },
    {
      "inputs": [],
      "name": "getAllMessage",
      "outputs": [
        {
          "internalType": "string[]",
          "name": "",
          "type": "string[]"
        }
      ],
      "stateMutability": "view",
      "type": "function"
    },
    {
      "inputs": [
        {
          "internalType": "uint256",
          "name": "index",
          "type": "uint256"
        }
      ],
      "name": "getMessage",
      "outputs": [
        {
          "internalType": "string",
          "name": "",
          "type": "string"
        }
      ],
      "stateMutability": "view",
      "type": "function"
    },
    {
      "inputs": [
        {
          "internalType": "string",
          "name": "message",
          "type": "string"
        }
      ],
      "name": "recordMessage",
      "outputs": [],
      "stateMutability": "nonpayable",
      "type": "function"
    }
  ],
  "bytecode": "0x608060405260006001553480156200001657600080fd5b5060405162000e0c38038062000e0c83398101604081905262000039916200025d565b600080546001600160a01b0319163317905562000056816200005d565b506200056f565b6000546001600160a01b03163314620000935760405162461bcd60e51b81526004016200008a906200029d565b60405180910390fd5b806000815111620000b85760405162461bcd60e51b81526004016200008a90620002ee565b6001546000908152600260205260409020620000d5838262000422565b506001547f990a0c50779c34766b49d4e51f3bb2293cc7061a5c5adaa9a4baebb944f88d68836040516200010a919062000523565b60405180910390a260018054906000620001248362000553565b91905055505050565b634e487b7160e01b600052604160045260246000fd5b601f19601f83011681016001600160401b03811182821017156200016b576200016b6200012d565b6040525050565b60006200017e60405190565b90506200018c828262000143565b919050565b60006001600160401b03821115620001ad57620001ad6200012d565b601f19601f83011660200192915050565b60005b83811015620001db578181015183820152602001620001c1565b50506000910152565b6000620001fb620001f58462000191565b62000172565b905082815260208101848484011115620002185762000218600080fd5b62000225848285620001be565b509392505050565b600082601f830112620002435762000243600080fd5b815162000255848260208601620001e4565b949350505050565b600060208284031215620002745762000274600080fd5b81516001600160401b038111156200028f576200028f600080fd5b62000255848285016200022d565b60208082528101620002e881602681527f4f6e6c7920746865206f776e65722063616e2063616c6c20746869732066756e60208201526531ba34b7b71760d11b604082015260600190565b92915050565b60208082528101620002e881601881527f4d6573736167652063616e6e6f7420626520656d7074792e0000000000000000602082015260400190565b634e487b7160e01b600052602260045260246000fd5b6002810460018216806200035557607f821691505b6020821081036200036a576200036a6200032a565b50919050565b6000620002e86200037e8381565b90565b6200038c8362000370565b815460001960089490940293841b1916921b91909117905550565b6000620003b681848462000381565b505050565b81811015620003da57620003d1600082620003a7565b600101620003bb565b5050565b601f821115620003b6576000818152602090206020601f85010481016020851015620004075750805b6200041b6020601f860104830182620003bb565b5050505050565b81516001600160401b038111156200043e576200043e6200012d565b6200044a825462000340565b62000457828285620003de565b506020601f8211600181146200048f5760008315620004765750848201515b600019600885021c19811660028502178555506200041b565b600084815260208120601f198516915b82811015620004c157878501518255602094850194600190920191016200049f565b5084821015620004df5783870151600019601f87166008021c191681555b50505050600202600101905550565b6000620004f9825190565b80845260208401935062000512818560208601620001be565b601f01601f19169290920192915050565b60208082528101620005368184620004ee565b9392505050565b634e487b7160e01b600052601160045260246000fd5b6000600182016200056857620005686200053d565b5060010190565b61088d806200057f6000396000f3fe608060405234801561001057600080fd5b50600436106100415760003560e01c8063808e51161461004657806386f79edb1461005b5780638f8586d214610084575b600080fd5b610059610054366004610451565b610099565b005b61006e610069366004610495565b61015d565b60405161007b919061050c565b60405180910390f35b61008c61021f565b60405161007b919061059a565b6000546001600160a01b031633146100cc5760405162461bcd60e51b81526004016100c3906105ab565b60405180910390fd5b8060008151116100ee5760405162461bcd60e51b81526004016100c390610627565b60015460009081526002602052604090206101098382610717565b506001547f990a0c50779c34766b49d4e51f3bb2293cc7061a5c5adaa9a4baebb944f88d688360405161013c919061050c565b60405180910390a260018054906000610154836107ed565b91905055505050565b60606001548211156101815760405162461bcd60e51b81526004016100c390610831565b6000828152600260205260409020805461019a9061064d565b80601f01602080910402602001604051908101604052809291908181526020018280546101c69061064d565b80156102135780601f106101e857610100808354040283529160200191610213565b820191906000526020600020905b8154815290600101906020018083116101f657829003601f168201915b50505050509050919050565b6060600060015467ffffffffffffffff81111561023e5761023e61034e565b60405190808252806020026020018201604052801561027157816020015b606081526020019060019003908161025c5790505b50905060005b600154811015610348576000818152600260205260409020805461029a9061064d565b80601f01602080910402602001604051908101604052809291908181526020018280546102c69061064d565b80156103135780601f106102e857610100808354040283529160200191610313565b820191906000526020600020905b8154815290600101906020018083116102f657829003601f168201915b505050505082828151811061032a5761032a610841565b60200260200101819052508080610340906107ed565b915050610277565b50919050565b634e487b7160e01b600052604160045260246000fd5b601f19601f830116810181811067ffffffffffffffff8211171561038a5761038a61034e565b6040525050565b600061039c60405190565b90506103a88282610364565b919050565b600067ffffffffffffffff8211156103c7576103c761034e565b601f19601f83011660200192915050565b82818337506000910152565b60006103f76103f2846103ad565b610391565b90508281526020810184848401111561041257610412600080fd5b61041d8482856103d8565b509392505050565b600082601f83011261043957610439600080fd5b81356104498482602086016103e4565b949350505050565b60006020828403121561046657610466600080fd5b813567ffffffffffffffff81111561048057610480600080fd5b61044984828501610425565b80355b92915050565b6000602082840312156104aa576104aa600080fd5b6000610449848461048c565b60005b838110156104d15781810151838201526020016104b9565b50506000910152565b60006104e4825190565b8084526020840193506104fb8185602086016104b6565b601f01601f19169290920192915050565b6020808252810161051d81846104da565b9392505050565b600061051d83836104da565b60200190565b6000610540825190565b8084526020840193508360208202850161055a8560200190565b60005b8481101561058e57838303885281516105768482610524565b9350506020820160209890980197915060010161055d565b50909695505050505050565b6020808252810161051d8184610536565b6020808252810161048f81602681527f4f6e6c7920746865206f776e65722063616e2063616c6c20746869732066756e60208201526531ba34b7b71760d11b604082015260600190565b60188152602081017f4d6573736167652063616e6e6f7420626520656d7074792e000000000000000081529050610530565b6020808252810161048f816105f5565b634e487b7160e01b600052602260045260246000fd5b60028104600182168061066157607f821691505b60208210810361034857610348610637565b600061048f61067f8381565b90565b61068b83610673565b815460001960089490940293841b1916921b91909117905550565b60006106b3818484610682565b505050565b818110156106d3576106cb6000826106a6565b6001016106b8565b5050565b601f8211156106b3576000818152602090206020601f850104810160208510156106fe5750805b6107106020601f8601048301826106b8565b5050505050565b815167ffffffffffffffff8111156107315761073161034e565b61073b825461064d565b6107468282856106d7565b506020601f82116001811461077b57600083156107635750848201515b600019600885021c1981166002850217855550610710565b600084815260208120601f198516915b828110156107ab578785015182556020948501946001909201910161078b565b50848210156107c85783870151600019601f87166008021c191681555b50505050600202600101905550565b634e487b7160e01b600052601160045260246000fd5b6000600182016107ff576107ff6107d7565b5060010190565b60168152602081017524b73b30b634b21036b2b9b9b0b3b29034b73232bc1760511b81529050610530565b6020808252810161048f81610806565b634e487b7160e01b600052603260045260246000fdfea264697066735822122093c95b86a0be004e231f92fb4a1de9c858d681eb9abcd044663d398abe043cf864736f6c63430008130033",
  "linkReferences": {},
  "deployedLinkReferences": {}
}