{
  "_format": "hh-sol-artifact-1",
  "contractName": "Inscription",
  "sourceName": "src/Inscription.sol",
  "abi": [
    {
      "inputs": [
        {
          "internalType": "string",
          "name": "firstMessage",
          "type": "string"
        }
      ],
      "stateMutability": "nonpayable",
      "type": "constructor"
    },
    {
      "anonymous": false,
      "inputs": [
        {
          "indexed": true,
          "internalType": "uint256",
          "name": "index",
          "type": "uint256"
        },
        {
          "indexed": false,
          "internalType": "string",
          "name": "message",
          "type": "string"
        }
      ],
      "name": "RecordedMessage",
      "type": "event"
    },
    {
      "inputs": [],
      "name": "getAllMessage",
      "outputs": [
        {
          "internalType": "string[]",
          "name": "",
          "type": "string[]"
        }
      ],
      "stateMutability": "view",
      "type": "function"
    },
    {
      "inputs": [
        {
          "internalType": "uint256",
          "name": "index",
          "type": "uint256"
        }
      ],
      "name": "getMessage",
      "outputs": [
        {
          "internalType": "string",
          "name": "",
          "type": "string"
        }
      ],
      "stateMutability": "view",
      "type": "function"
    },
    {
      "inputs": [],
      "name": "owner",
      "outputs": [
        {
          "internalType": "address",
          "name": "",
          "type": "address"
        }
      ],
      "stateMutability": "view",
      "type": "function"
    },
    {
      "inputs": [
        {
          "internalType": "string",
          "name": "message",
          "type": "string"
        }
      ],
      "name": "recordMessage",
      "outputs": [],
      "stateMutability": "nonpayable",
      "type": "function"
    }
  ],
  "bytecode": "0x608060405260006001553480156200001657600080fd5b5060405162000bc138038062000bc18339810160408190526200003991620001d1565b600080546001600160a01b0319163317905562000056816200005d565b5062000441565b6000546001600160a01b03163314620000cc5760405162461bcd60e51b815260206004820152602660248201527f4f6e6c7920746865206f776e65722063616e2063616c6c20746869732066756e60448201526531ba34b7b71760d11b60648201526084015b60405180910390fd5b806000815111620001205760405162461bcd60e51b815260206004820152601860248201527f4d6573736167652063616e6e6f7420626520656d7074792e00000000000000006044820152606401620000c3565b60015460009081526002602052604090206200013d838262000318565b506001547f990a0c50779c34766b49d4e51f3bb2293cc7061a5c5adaa9a4baebb944f88d6883604051620001729190620003e4565b60405180910390a2600180549060006200018c8362000419565b91905055505050565b634e487b7160e01b600052604160045260246000fd5b60005b83811015620001c8578181015183820152602001620001ae565b50506000910152565b600060208284031215620001e457600080fd5b81516001600160401b0380821115620001fc57600080fd5b818401915084601f8301126200021157600080fd5b81518181111562000226576200022662000195565b604051601f8201601f19908116603f0116810190838211818310171562000251576200025162000195565b816040528281528760208487010111156200026b57600080fd5b6200027e836020830160208801620001ab565b979650505050505050565b600181811c908216806200029e57607f821691505b602082108103620002bf57634e487b7160e01b600052602260045260246000fd5b50919050565b601f8211156200031357600081815260208120601f850160051c81016020861015620002ee5750805b601f850160051c820191505b818110156200030f57828155600101620002fa565b5050505b505050565b81516001600160401b0381111562000334576200033462000195565b6200034c8162000345845462000289565b84620002c5565b602080601f8311600181146200038457600084156200036b5750858301515b600019600386901b1c1916600185901b1785556200030f565b600085815260208120601f198616915b82811015620003b55788860151825594840194600190910190840162000394565b5085821015620003d45787850151600019600388901b60f8161c191681555b5050505050600190811b01905550565b602081526000825180602084015262000405816040850160208701620001ab565b601f01601f19169190910160400192915050565b6000600182016200043a57634e487b7160e01b600052601160045260246000fd5b5060010190565b61077080620004516000396000f3fe608060405234801561001057600080fd5b506004361061004c5760003560e01c8063808e51161461005157806386f79edb146100665780638da5cb5b1461008f5780638f8586d2146100ba575b600080fd5b61006461005f36600461042e565b6100cf565b005b6100796100743660046104df565b6101fe565b604051610086919061053e565b60405180910390f35b6000546100a2906001600160a01b031681565b6040516001600160a01b039091168152602001610086565b6100c26102e9565b6040516100869190610558565b6000546001600160a01b0316331461013d5760405162461bcd60e51b815260206004820152602660248201527f4f6e6c7920746865206f776e65722063616e2063616c6c20746869732066756e60448201526531ba34b7b71760d11b60648201526084015b60405180910390fd5b80600081511161018f5760405162461bcd60e51b815260206004820152601860248201527f4d6573736167652063616e6e6f7420626520656d7074792e00000000000000006044820152606401610134565b60015460009081526002602052604090206101aa838261063d565b506001547f990a0c50779c34766b49d4e51f3bb2293cc7061a5c5adaa9a4baebb944f88d68836040516101dd919061053e565b60405180910390a2600180549060006101f5836106fd565b91905055505050565b606060015482111561024b5760405162461bcd60e51b815260206004820152601660248201527524b73b30b634b21036b2b9b9b0b3b29034b73232bc1760511b6044820152606401610134565b60008281526002602052604090208054610264906105ba565b80601f0160208091040260200160405190810160405280929190818152602001828054610290906105ba565b80156102dd5780601f106102b2576101008083540402835291602001916102dd565b820191906000526020600020905b8154815290600101906020018083116102c057829003601f168201915b50505050509050919050565b6060600060015467ffffffffffffffff81111561030857610308610418565b60405190808252806020026020018201604052801561033b57816020015b60608152602001906001900390816103265790505b50905060005b6001548110156104125760008181526002602052604090208054610364906105ba565b80601f0160208091040260200160405190810160405280929190818152602001828054610390906105ba565b80156103dd5780601f106103b2576101008083540402835291602001916103dd565b820191906000526020600020905b8154815290600101906020018083116103c057829003601f168201915b50505050508282815181106103f4576103f4610724565b6020026020010181905250808061040a906106fd565b915050610341565b50919050565b634e487b7160e01b600052604160045260246000fd5b60006020828403121561044057600080fd5b813567ffffffffffffffff8082111561045857600080fd5b818401915084601f83011261046c57600080fd5b81358181111561047e5761047e610418565b604051601f8201601f19908116603f011681019083821181831017156104a6576104a6610418565b816040528281528760208487010111156104bf57600080fd5b826020860160208301376000928101602001929092525095945050505050565b6000602082840312156104f157600080fd5b5035919050565b6000815180845260005b8181101561051e57602081850181015186830182015201610502565b506000602082860101526020601f19601f83011685010191505092915050565b60208152600061055160208301846104f8565b9392505050565b6000602080830181845280855180835260408601915060408160051b870101925083870160005b828110156105ad57603f1988860301845261059b8583516104f8565b9450928501929085019060010161057f565b5092979650505050505050565b600181811c908216806105ce57607f821691505b60208210810361041257634e487b7160e01b600052602260045260246000fd5b601f82111561063857600081815260208120601f850160051c810160208610156106155750805b601f850160051c820191505b8181101561063457828155600101610621565b5050505b505050565b815167ffffffffffffffff81111561065757610657610418565b61066b8161066584546105ba565b846105ee565b602080601f8311600181146106a057600084156106885750858301515b600019600386901b1c1916600185901b178555610634565b600085815260208120601f198616915b828110156106cf578886015182559484019460019091019084016106b0565b50858210156106ed5787850151600019600388901b60f8161c191681555b5050505050600190811b01905550565b60006001820161071d57634e487b7160e01b600052601160045260246000fd5b5060010190565b634e487b7160e01b600052603260045260246000fdfea26469706673582212206e1cb28dca77e7a2295b312dd3a1a3050bb4b6712ae3e72c2f9708b0c7a91ee964736f6c63430008130033",
  "linkReferences": {},
  "deployedLinkReferences": {}
}